{
  "_format": "hh-sol-artifact-1",
  "contractName": "IPLTicketNFT",
  "sourceName": "contracts/IPLTicketNFT.sol",
  "abi": [
    {
      "inputs": [],
      "stateMutability": "nonpayable",
      "type": "constructor"
    },
    {
      "anonymous": false,
      "inputs": [
        {
          "indexed": true,
          "internalType": "address",
          "name": "owner",
          "type": "address"
        },
        {
          "indexed": true,
          "internalType": "address",
          "name": "approved",
          "type": "address"
        },
        {
          "indexed": true,
          "internalType": "uint256",
          "name": "tokenId",
          "type": "uint256"
        }
      ],
      "name": "Approval",
      "type": "event"
    },
    {
      "anonymous": false,
      "inputs": [
        {
          "indexed": true,
          "internalType": "address",
          "name": "owner",
          "type": "address"
        },
        {
          "indexed": true,
          "internalType": "address",
          "name": "operator",
          "type": "address"
        },
        {
          "indexed": false,
          "internalType": "bool",
          "name": "approved",
          "type": "bool"
        }
      ],
      "name": "ApprovalForAll",
      "type": "event"
    },
    {
      "anonymous": false,
      "inputs": [
        {
          "indexed": true,
          "internalType": "address",
          "name": "previousOwner",
          "type": "address"
        },
        {
          "indexed": true,
          "internalType": "address",
          "name": "newOwner",
          "type": "address"
        }
      ],
      "name": "OwnershipTransferred",
      "type": "event"
    },
    {
      "anonymous": false,
      "inputs": [
        {
          "indexed": true,
          "internalType": "address",
          "name": "from",
          "type": "address"
        },
        {
          "indexed": true,
          "internalType": "address",
          "name": "to",
          "type": "address"
        },
        {
          "indexed": true,
          "internalType": "uint256",
          "name": "tokenId",
          "type": "uint256"
        }
      ],
      "name": "Transfer",
      "type": "event"
    },
    {
      "inputs": [],
      "name": "admin",
      "outputs": [
        {
          "internalType": "address",
          "name": "",
          "type": "address"
        }
      ],
      "stateMutability": "view",
      "type": "function"
    },
    {
      "inputs": [
        {
          "internalType": "address",
          "name": "to",
          "type": "address"
        },
        {
          "internalType": "uint256",
          "name": "tokenId",
          "type": "uint256"
        }
      ],
      "name": "approve",
      "outputs": [],
      "stateMutability": "nonpayable",
      "type": "function"
    },
    {
      "inputs": [
        {
          "internalType": "address",
          "name": "owner",
          "type": "address"
        }
      ],
      "name": "balanceOf",
      "outputs": [
        {
          "internalType": "uint256",
          "name": "",
          "type": "uint256"
        }
      ],
      "stateMutability": "view",
      "type": "function"
    },
    {
      "inputs": [
        {
          "internalType": "uint256",
          "name": "tokenId",
          "type": "uint256"
        }
      ],
      "name": "getApproved",
      "outputs": [
        {
          "internalType": "address",
          "name": "",
          "type": "address"
        }
      ],
      "stateMutability": "view",
      "type": "function"
    },
    {
      "inputs": [
        {
          "internalType": "address",
          "name": "owner",
          "type": "address"
        },
        {
          "internalType": "address",
          "name": "operator",
          "type": "address"
        }
      ],
      "name": "isApprovedForAll",
      "outputs": [
        {
          "internalType": "bool",
          "name": "",
          "type": "bool"
        }
      ],
      "stateMutability": "view",
      "type": "function"
    },
    {
      "inputs": [
        {
          "internalType": "address",
          "name": "to",
          "type": "address"
        }
      ],
      "name": "mint",
      "outputs": [],
      "stateMutability": "nonpayable",
      "type": "function"
    },
    {
      "inputs": [],
      "name": "name",
      "outputs": [
        {
          "internalType": "string",
          "name": "",
          "type": "string"
        }
      ],
      "stateMutability": "view",
      "type": "function"
    },
    {
      "inputs": [],
      "name": "nextTokenId",
      "outputs": [
        {
          "internalType": "uint256",
          "name": "",
          "type": "uint256"
        }
      ],
      "stateMutability": "view",
      "type": "function"
    },
    {
      "inputs": [],
      "name": "owner",
      "outputs": [
        {
          "internalType": "address",
          "name": "",
          "type": "address"
        }
      ],
      "stateMutability": "view",
      "type": "function"
    },
    {
      "inputs": [
        {
          "internalType": "uint256",
          "name": "tokenId",
          "type": "uint256"
        }
      ],
      "name": "ownerOf",
      "outputs": [
        {
          "internalType": "address",
          "name": "",
          "type": "address"
        }
      ],
      "stateMutability": "view",
      "type": "function"
    },
    {
      "inputs": [],
      "name": "renounceOwnership",
      "outputs": [],
      "stateMutability": "nonpayable",
      "type": "function"
    },
    {
      "inputs": [
        {
          "internalType": "address",
          "name": "from",
          "type": "address"
        },
        {
          "internalType": "address",
          "name": "to",
          "type": "address"
        },
        {
          "internalType": "uint256",
          "name": "tokenId",
          "type": "uint256"
        }
      ],
      "name": "safeTransferFrom",
      "outputs": [],
      "stateMutability": "nonpayable",
      "type": "function"
    },
    {
      "inputs": [
        {
          "internalType": "address",
          "name": "from",
          "type": "address"
        },
        {
          "internalType": "address",
          "name": "to",
          "type": "address"
        },
        {
          "internalType": "uint256",
          "name": "tokenId",
          "type": "uint256"
        },
        {
          "internalType": "bytes",
          "name": "_data",
          "type": "bytes"
        }
      ],
      "name": "safeTransferFrom",
      "outputs": [],
      "stateMutability": "nonpayable",
      "type": "function"
    },
    {
      "inputs": [
        {
          "internalType": "address",
          "name": "operator",
          "type": "address"
        },
        {
          "internalType": "bool",
          "name": "approved",
          "type": "bool"
        }
      ],
      "name": "setApprovalForAll",
      "outputs": [],
      "stateMutability": "nonpayable",
      "type": "function"
    },
    {
      "inputs": [
        {
          "internalType": "bytes4",
          "name": "interfaceId",
          "type": "bytes4"
        }
      ],
      "name": "supportsInterface",
      "outputs": [
        {
          "internalType": "bool",
          "name": "",
          "type": "bool"
        }
      ],
      "stateMutability": "view",
      "type": "function"
    },
    {
      "inputs": [],
      "name": "symbol",
      "outputs": [
        {
          "internalType": "string",
          "name": "",
          "type": "string"
        }
      ],
      "stateMutability": "view",
      "type": "function"
    },
    {
      "inputs": [
        {
          "internalType": "uint256",
          "name": "tokenId",
          "type": "uint256"
        }
      ],
      "name": "tokenURI",
      "outputs": [
        {
          "internalType": "string",
          "name": "",
          "type": "string"
        }
      ],
      "stateMutability": "view",
      "type": "function"
    },
    {
      "inputs": [
        {
          "internalType": "address",
          "name": "from",
          "type": "address"
        },
        {
          "internalType": "address",
          "name": "to",
          "type": "address"
        },
        {
          "internalType": "uint256",
          "name": "tokenId",
          "type": "uint256"
        }
      ],
      "name": "transferFrom",
      "outputs": [],
      "stateMutability": "nonpayable",
      "type": "function"
    },
    {
      "inputs": [
        {
          "internalType": "address",
          "name": "newOwner",
          "type": "address"
        }
      ],
      "name": "transferOwnership",
      "outputs": [],
      "stateMutability": "nonpayable",
      "type": "function"
    }
  ],
  "bytecode": "0x60806040523480156200001157600080fd5b506040518060400160405280600981526020017f49504c5469636b657400000000000000000000000000000000000000000000008152506040518060400160405280600681526020017f49504c544b540000000000000000000000000000000000000000000000000000815250816000908051906020019062000096929190620001e7565b508060019080519060200190620000af929190620001e7565b505050620000d2620000c66200011960201b60201c565b6200012160201b60201c565b33600860006101000a81548173ffffffffffffffffffffffffffffffffffffffff021916908373ffffffffffffffffffffffffffffffffffffffff160217905550620002fc565b600033905090565b6000600660009054906101000a900473ffffffffffffffffffffffffffffffffffffffff16905081600660006101000a81548173ffffffffffffffffffffffffffffffffffffffff021916908373ffffffffffffffffffffffffffffffffffffffff1602179055508173ffffffffffffffffffffffffffffffffffffffff168173ffffffffffffffffffffffffffffffffffffffff167f8be0079c531659141344cd1fd0a4f28419497f9722a3daafe3b4186f6b6457e060405160405180910390a35050565b828054620001f59062000297565b90600052602060002090601f01602090048101928262000219576000855562000265565b82601f106200023457805160ff191683800117855562000265565b8280016001018555821562000265579182015b828111156200026457825182559160200191906001019062000247565b5b50905062000274919062000278565b5090565b5b808211156200029357600081600090555060010162000279565b5090565b60006002820490506001821680620002b057607f821691505b60208210811415620002c757620002c6620002cd565b5b50919050565b7f4e487b7100000000000000000000000000000000000000000000000000000000600052602260045260246000fd5b612b33806200030c6000396000f3fe608060405234801561001057600080fd5b50600436106101215760003560e01c8063715018a6116100ad578063b88d4fde11610071578063b88d4fde146102f4578063c87b56dd14610310578063e985e9c514610340578063f2fde38b14610370578063f851a4401461038c57610121565b8063715018a61461027457806375794a3c1461027e5780638da5cb5b1461029c57806395d89b41146102ba578063a22cb465146102d857610121565b806323b872dd116100f457806323b872dd146101c057806342842e0e146101dc5780636352211e146101f85780636a6278421461022857806370a082311461024457610121565b806301ffc9a71461012657806306fdde0314610156578063081812fc14610174578063095ea7b3146101a4575b600080fd5b610140600480360381019061013b9190611cfc565b6103aa565b60405161014d919061249a565b60405180910390f35b61015e61048c565b60405161016b91906124b5565b60405180910390f35b61018e60048036038101906101899190611d4e565b61051e565b60405161019b9190612433565b60405180910390f35b6101be60048036038101906101b99190611cc0565b6105a3565b005b6101da60048036038101906101d59190611bba565b6106bb565b005b6101f660048036038101906101f19190611bba565b61071b565b005b610212600480360381019061020d9190611d4e565b61073b565b60405161021f9190612433565b60405180910390f35b610242600480360381019061023d9190611b55565b6107ed565b005b61025e60048036038101906102599190611b55565b610890565b60405161026b91906126d7565b60405180910390f35b61027c610948565b005b6102866109d0565b60405161029391906126d7565b60405180910390f35b6102a46109d6565b6040516102b19190612433565b60405180910390f35b6102c2610a00565b6040516102cf91906124b5565b60405180910390f35b6102f260048036038101906102ed9190611c84565b610a92565b005b61030e60048036038101906103099190611c09565b610c13565b005b61032a60048036038101906103259190611d4e565b610c75565b60405161033791906124b5565b60405180910390f35b61035a60048036038101906103559190611b7e565b610d1c565b604051610367919061249a565b60405180910390f35b61038a60048036038101906103859190611b55565b610db0565b005b610394610ea8565b6040516103a19190612433565b60405180910390f35b60007f80ac58cd000000000000000000000000000000000000000000000000000000007bffffffffffffffffffffffffffffffffffffffffffffffffffffffff1916827bffffffffffffffffffffffffffffffffffffffffffffffffffffffff1916148061047557507f5b5e139f000000000000000000000000000000000000000000000000000000007bffffffffffffffffffffffffffffffffffffffffffffffffffffffff1916827bffffffffffffffffffffffffffffffffffffffffffffffffffffffff1916145b80610485575061048482610ece565b5b9050919050565b60606000805461049b90612907565b80601f01602080910402602001604051908101604052809291908181526020018280546104c790612907565b80156105145780601f106104e957610100808354040283529160200191610514565b820191906000526020600020905b8154815290600101906020018083116104f757829003601f168201915b5050505050905090565b600061052982610f38565b610568576040517f08c379a000000000000000000000000000000000000000000000000000000000815260040161055f90612617565b60405180910390fd5b6004600083815260200190815260200160002060009054906101000a900473ffffffffffffffffffffffffffffffffffffffff169050919050565b60006105ae8261073b565b90508073ffffffffffffffffffffffffffffffffffffffff168373ffffffffffffffffffffffffffffffffffffffff16141561061f576040517f08c379a000000000000000000000000000000000000000000000000000000000815260040161061690612697565b60405180910390fd5b8073ffffffffffffffffffffffffffffffffffffffff1661063e610fa4565b73ffffffffffffffffffffffffffffffffffffffff16148061066d575061066c81610667610fa4565b610d1c565b5b6106ac576040517f08c379a00000000000000000000000000000000000000000000000000000000081526004016106a390612597565b60405180910390fd5b6106b68383610fac565b505050565b6106cc6106c6610fa4565b82611065565b61070b576040517f08c379a0000000000000000000000000000000000000000000000000000000008152600401610702906126b7565b60405180910390fd5b610716838383611143565b505050565b61073683838360405180602001604052806000815250610c13565b505050565b6000806002600084815260200190815260200160002060009054906101000a900473ffffffffffffffffffffffffffffffffffffffff169050600073ffffffffffffffffffffffffffffffffffffffff168173ffffffffffffffffffffffffffffffffffffffff1614156107e4576040517f08c379a00000000000000000000000000000000000000000000000000000000081526004016107db906125d7565b60405180910390fd5b80915050919050565b6107f5610fa4565b73ffffffffffffffffffffffffffffffffffffffff166108136109d6565b73ffffffffffffffffffffffffffffffffffffffff1614610869576040517f08c379a000000000000000000000000000000000000000000000000000000000815260040161086090612637565b60405180910390fd5b6108758160075461139f565b6007600081548092919061088890612939565b919050555050565b60008073ffffffffffffffffffffffffffffffffffffffff168273ffffffffffffffffffffffffffffffffffffffff161415610901576040517f08c379a00000000000000000000000000000000000000000000000000000000081526004016108f8906125b7565b60405180910390fd5b600360008373ffffffffffffffffffffffffffffffffffffffff1673ffffffffffffffffffffffffffffffffffffffff168152602001908152602001600020549050919050565b610950610fa4565b73ffffffffffffffffffffffffffffffffffffffff1661096e6109d6565b73ffffffffffffffffffffffffffffffffffffffff16146109c4576040517f08c379a00000000000000000000000000000000000000000000000000000000081526004016109bb90612637565b60405180910390fd5b6109ce60006113bd565b565b60075481565b6000600660009054906101000a900473ffffffffffffffffffffffffffffffffffffffff16905090565b606060018054610a0f90612907565b80601f0160208091040260200160405190810160405280929190818152602001828054610a3b90612907565b8015610a885780601f10610a5d57610100808354040283529160200191610a88565b820191906000526020600020905b815481529060010190602001808311610a6b57829003601f168201915b5050505050905090565b610a9a610fa4565b73ffffffffffffffffffffffffffffffffffffffff168273ffffffffffffffffffffffffffffffffffffffff161415610b08576040517f08c379a0000000000000000000000000000000000000000000000000000000008152600401610aff90612557565b60405180910390fd5b8060056000610b15610fa4565b73ffffffffffffffffffffffffffffffffffffffff1673ffffffffffffffffffffffffffffffffffffffff16815260200190815260200160002060008473ffffffffffffffffffffffffffffffffffffffff1673ffffffffffffffffffffffffffffffffffffffff16815260200190815260200160002060006101000a81548160ff0219169083151502179055508173ffffffffffffffffffffffffffffffffffffffff16610bc2610fa4565b73ffffffffffffffffffffffffffffffffffffffff167f17307eab39ab6107e8899845ad3d59bd9653f200f220920489ca2b5937696c3183604051610c07919061249a565b60405180910390a35050565b610c24610c1e610fa4565b83611065565b610c63576040517f08c379a0000000000000000000000000000000000000000000000000000000008152600401610c5a906126b7565b60405180910390fd5b610c6f84848484611483565b50505050565b6060610c8082610f38565b610cbf576040517f08c379a0000000000000000000000000000000000000000000000000000000008152600401610cb690612677565b60405180910390fd5b6000610cc96114df565b90506000815111610ce95760405180602001604052806000815250610d14565b80610cf3846114ff565b604051602001610d0492919061240f565b6040516020818303038152906040525b915050919050565b6000600560008473ffffffffffffffffffffffffffffffffffffffff1673ffffffffffffffffffffffffffffffffffffffff16815260200190815260200160002060008373ffffffffffffffffffffffffffffffffffffffff1673ffffffffffffffffffffffffffffffffffffffff16815260200190815260200160002060009054906101000a900460ff16905092915050565b610db8610fa4565b73ffffffffffffffffffffffffffffffffffffffff16610dd66109d6565b73ffffffffffffffffffffffffffffffffffffffff1614610e2c576040517f08c379a0000000000000000000000000000000000000000000000000000000008152600401610e2390612637565b60405180910390fd5b600073ffffffffffffffffffffffffffffffffffffffff168173ffffffffffffffffffffffffffffffffffffffff161415610e9c576040517f08c379a0000000000000000000000000000000000000000000000000000000008152600401610e93906124f7565b60405180910390fd5b610ea5816113bd565b50565b600860009054906101000a900473ffffffffffffffffffffffffffffffffffffffff1681565b60007f01ffc9a7000000000000000000000000000000000000000000000000000000007bffffffffffffffffffffffffffffffffffffffffffffffffffffffff1916827bffffffffffffffffffffffffffffffffffffffffffffffffffffffff1916149050919050565b60008073ffffffffffffffffffffffffffffffffffffffff166002600084815260200190815260200160002060009054906101000a900473ffffffffffffffffffffffffffffffffffffffff1673ffffffffffffffffffffffffffffffffffffffff1614159050919050565b600033905090565b816004600083815260200190815260200160002060006101000a81548173ffffffffffffffffffffffffffffffffffffffff021916908373ffffffffffffffffffffffffffffffffffffffff160217905550808273ffffffffffffffffffffffffffffffffffffffff1661101f8361073b565b73ffffffffffffffffffffffffffffffffffffffff167f8c5be1e5ebec7d5bd14f71427d1e84f3dd0314c0f7b2291e5b200ac8c7c3b92560405160405180910390a45050565b600061107082610f38565b6110af576040517f08c379a00000000000000000000000000000000000000000000000000000000081526004016110a690612577565b60405180910390fd5b60006110ba8361073b565b90508073ffffffffffffffffffffffffffffffffffffffff168473ffffffffffffffffffffffffffffffffffffffff16148061112957508373ffffffffffffffffffffffffffffffffffffffff166111118461051e565b73ffffffffffffffffffffffffffffffffffffffff16145b8061113a57506111398185610d1c565b5b91505092915050565b8273ffffffffffffffffffffffffffffffffffffffff166111638261073b565b73ffffffffffffffffffffffffffffffffffffffff16146111b9576040517f08c379a00000000000000000000000000000000000000000000000000000000081526004016111b090612657565b60405180910390fd5b600073ffffffffffffffffffffffffffffffffffffffff168273ffffffffffffffffffffffffffffffffffffffff161415611229576040517f08c379a000000000000000000000000000000000000000000000000000000000815260040161122090612537565b60405180910390fd5b6112348383836116ac565b61123f600082610fac565b6001600360008573ffffffffffffffffffffffffffffffffffffffff1673ffffffffffffffffffffffffffffffffffffffff168152602001908152602001600020600082825461128f919061281d565b925050819055506001600360008473ffffffffffffffffffffffffffffffffffffffff1673ffffffffffffffffffffffffffffffffffffffff16815260200190815260200160002060008282546112e69190612796565b92505081905550816002600083815260200190815260200160002060006101000a81548173ffffffffffffffffffffffffffffffffffffffff021916908373ffffffffffffffffffffffffffffffffffffffff160217905550808273ffffffffffffffffffffffffffffffffffffffff168473ffffffffffffffffffffffffffffffffffffffff167fddf252ad1be2c89b69c2b068fc378daa952ba7f163c4a11628f55a4df523b3ef60405160405180910390a4505050565b6113b98282604051806020016040528060008152506116b1565b5050565b6000600660009054906101000a900473ffffffffffffffffffffffffffffffffffffffff16905081600660006101000a81548173ffffffffffffffffffffffffffffffffffffffff021916908373ffffffffffffffffffffffffffffffffffffffff1602179055508173ffffffffffffffffffffffffffffffffffffffff168173ffffffffffffffffffffffffffffffffffffffff167f8be0079c531659141344cd1fd0a4f28419497f9722a3daafe3b4186f6b6457e060405160405180910390a35050565b61148e848484611143565b61149a8484848461170c565b6114d9576040517f08c379a00000000000000000000000000000000000000000000000000000000081526004016114d0906124d7565b60405180910390fd5b50505050565b6060604051806060016040528060218152602001612add60219139905090565b60606000821415611547576040518060400160405280600181526020017f300000000000000000000000000000000000000000000000000000000000000081525090506116a7565b600082905060005b6000821461157957808061156290612939565b915050600a8261157291906127ec565b915061154f565b60008167ffffffffffffffff8111156115bb577f4e487b7100000000000000000000000000000000000000000000000000000000600052604160045260246000fd5b6040519080825280601f01601f1916602001820160405280156115ed5781602001600182028036833780820191505090505b5090505b600085146116a057600182611606919061281d565b9150600a856116159190612982565b60306116219190612796565b60f81b81838151811061165d577f4e487b7100000000000000000000000000000000000000000000000000000000600052603260045260246000fd5b60200101907effffffffffffffffffffffffffffffffffffffffffffffffffffffffffffff1916908160001a905350600a8561169991906127ec565b94506115f1565b8093505050505b919050565b505050565b6116bb83836118a3565b6116c8600084848461170c565b611707576040517f08c379a00000000000000000000000000000000000000000000000000000000081526004016116fe906124d7565b60405180910390fd5b505050565b600061172d8473ffffffffffffffffffffffffffffffffffffffff16611a71565b15611896578373ffffffffffffffffffffffffffffffffffffffff1663150b7a02611756610fa4565b8786866040518563ffffffff1660e01b8152600401611778949392919061244e565b602060405180830381600087803b15801561179257600080fd5b505af19250505080156117c357506040513d601f19601f820116820180604052508101906117c09190611d25565b60015b611846573d80600081146117f3576040519150601f19603f3d011682016040523d82523d6000602084013e6117f8565b606091505b5060008151141561183e576040517f08c379a0000000000000000000000000000000000000000000000000000000008152600401611835906124d7565b60405180910390fd5b805181602001fd5b63150b7a0260e01b7bffffffffffffffffffffffffffffffffffffffffffffffffffffffff1916817bffffffffffffffffffffffffffffffffffffffffffffffffffffffff19161491505061189b565b600190505b949350505050565b600073ffffffffffffffffffffffffffffffffffffffff168273ffffffffffffffffffffffffffffffffffffffff161415611913576040517f08c379a000000000000000000000000000000000000000000000000000000000815260040161190a906125f7565b60405180910390fd5b61191c81610f38565b1561195c576040517f08c379a000000000000000000000000000000000000000000000000000000000815260040161195390612517565b60405180910390fd5b611968600083836116ac565b6001600360008473ffffffffffffffffffffffffffffffffffffffff1673ffffffffffffffffffffffffffffffffffffffff16815260200190815260200160002060008282546119b89190612796565b92505081905550816002600083815260200190815260200160002060006101000a81548173ffffffffffffffffffffffffffffffffffffffff021916908373ffffffffffffffffffffffffffffffffffffffff160217905550808273ffffffffffffffffffffffffffffffffffffffff16600073ffffffffffffffffffffffffffffffffffffffff167fddf252ad1be2c89b69c2b068fc378daa952ba7f163c4a11628f55a4df523b3ef60405160405180910390a45050565b600080823b905060008111915050919050565b6000611a97611a9284612723565b6126f2565b905082815260208101848484011115611aaf57600080fd5b611aba8482856128c5565b509392505050565b600081359050611ad181612a80565b92915050565b600081359050611ae681612a97565b92915050565b600081359050611afb81612aae565b92915050565b600081519050611b1081612aae565b92915050565b600082601f830112611b2757600080fd5b8135611b37848260208601611a84565b91505092915050565b600081359050611b4f81612ac5565b92915050565b600060208284031215611b6757600080fd5b6000611b7584828501611ac2565b91505092915050565b60008060408385031215611b9157600080fd5b6000611b9f85828601611ac2565b9250506020611bb085828601611ac2565b9150509250929050565b600080600060608486031215611bcf57600080fd5b6000611bdd86828701611ac2565b9350506020611bee86828701611ac2565b9250506040611bff86828701611b40565b9150509250925092565b60008060008060808587031215611c1f57600080fd5b6000611c2d87828801611ac2565b9450506020611c3e87828801611ac2565b9350506040611c4f87828801611b40565b925050606085013567ffffffffffffffff811115611c6c57600080fd5b611c7887828801611b16565b91505092959194509250565b60008060408385031215611c9757600080fd5b6000611ca585828601611ac2565b9250506020611cb685828601611ad7565b9150509250929050565b60008060408385031215611cd357600080fd5b6000611ce185828601611ac2565b9250506020611cf285828601611b40565b9150509250929050565b600060208284031215611d0e57600080fd5b6000611d1c84828501611aec565b91505092915050565b600060208284031215611d3757600080fd5b6000611d4584828501611b01565b91505092915050565b600060208284031215611d6057600080fd5b6000611d6e84828501611b40565b91505092915050565b611d8081612851565b82525050565b611d8f81612863565b82525050565b6000611da082612753565b611daa8185612769565b9350611dba8185602086016128d4565b611dc381612a6f565b840191505092915050565b6000611dd98261275e565b611de3818561277a565b9350611df38185602086016128d4565b611dfc81612a6f565b840191505092915050565b6000611e128261275e565b611e1c818561278b565b9350611e2c8185602086016128d4565b80840191505092915050565b6000611e4560328361277a565b91507f4552433732313a207472616e7366657220746f206e6f6e20455243373231526560008301527f63656976657220696d706c656d656e74657200000000000000000000000000006020830152604082019050919050565b6000611eab60268361277a565b91507f4f776e61626c653a206e6577206f776e657220697320746865207a65726f206160008301527f64647265737300000000000000000000000000000000000000000000000000006020830152604082019050919050565b6000611f11601c8361277a565b91507f4552433732313a20746f6b656e20616c7265616479206d696e746564000000006000830152602082019050919050565b6000611f5160248361277a565b91507f4552433732313a207472616e7366657220746f20746865207a65726f2061646460008301527f72657373000000000000000000000000000000000000000000000000000000006020830152604082019050919050565b6000611fb760198361277a565b91507f4552433732313a20617070726f766520746f2063616c6c6572000000000000006000830152602082019050919050565b6000611ff7602c8361277a565b91507f4552433732313a206f70657261746f7220717565727920666f72206e6f6e657860008301527f697374656e7420746f6b656e00000000000000000000000000000000000000006020830152604082019050919050565b600061205d60388361277a565b91507f4552433732313a20617070726f76652063616c6c6572206973206e6f74206f7760008301527f6e6572206e6f7220617070726f76656420666f7220616c6c00000000000000006020830152604082019050919050565b60006120c3602a8361277a565b91507f4552433732313a2062616c616e636520717565727920666f7220746865207a6560008301527f726f2061646472657373000000000000000000000000000000000000000000006020830152604082019050919050565b600061212960298361277a565b91507f4552433732313a206f776e657220717565727920666f72206e6f6e657869737460008301527f656e7420746f6b656e00000000000000000000000000000000000000000000006020830152604082019050919050565b600061218f60208361277a565b91507f4552433732313a206d696e7420746f20746865207a65726f20616464726573736000830152602082019050919050565b60006121cf602c8361277a565b91507f4552433732313a20617070726f76656420717565727920666f72206e6f6e657860008301527f697374656e7420746f6b656e00000000000000000000000000000000000000006020830152604082019050919050565b600061223560208361277a565b91507f4f776e61626c653a2063616c6c6572206973206e6f7420746865206f776e65726000830152602082019050919050565b600061227560298361277a565b91507f4552433732313a207472616e73666572206f6620746f6b656e2074686174206960008301527f73206e6f74206f776e00000000000000000000000000000000000000000000006020830152604082019050919050565b60006122db602f8361277a565b91507f4552433732314d657461646174613a2055524920717565727920666f72206e6f60008301527f6e6578697374656e7420746f6b656e00000000000000000000000000000000006020830152604082019050919050565b600061234160218361277a565b91507f4552433732313a20617070726f76616c20746f2063757272656e74206f776e6560008301527f72000000000000000000000000000000000000000000000000000000000000006020830152604082019050919050565b60006123a760318361277a565b91507f4552433732313a207472616e736665722063616c6c6572206973206e6f74206f60008301527f776e6572206e6f7220617070726f7665640000000000000000000000000000006020830152604082019050919050565b612409816128bb565b82525050565b600061241b8285611e07565b91506124278284611e07565b91508190509392505050565b60006020820190506124486000830184611d77565b92915050565b60006080820190506124636000830187611d77565b6124706020830186611d77565b61247d6040830185612400565b818103606083015261248f8184611d95565b905095945050505050565b60006020820190506124af6000830184611d86565b92915050565b600060208201905081810360008301526124cf8184611dce565b905092915050565b600060208201905081810360008301526124f081611e38565b9050919050565b6000602082019050818103600083015261251081611e9e565b9050919050565b6000602082019050818103600083015261253081611f04565b9050919050565b6000602082019050818103600083015261255081611f44565b9050919050565b6000602082019050818103600083015261257081611faa565b9050919050565b6000602082019050818103600083015261259081611fea565b9050919050565b600060208201905081810360008301526125b081612050565b9050919050565b600060208201905081810360008301526125d0816120b6565b9050919050565b600060208201905081810360008301526125f08161211c565b9050919050565b6000602082019050818103600083015261261081612182565b9050919050565b60006020820190508181036000830152612630816121c2565b9050919050565b6000602082019050818103600083015261265081612228565b9050919050565b6000602082019050818103600083015261267081612268565b9050919050565b60006020820190508181036000830152612690816122ce565b9050919050565b600060208201905081810360008301526126b081612334565b9050919050565b600060208201905081810360008301526126d08161239a565b9050919050565b60006020820190506126ec6000830184612400565b92915050565b6000604051905081810181811067ffffffffffffffff8211171561271957612718612a40565b5b8060405250919050565b600067ffffffffffffffff82111561273e5761273d612a40565b5b601f19601f8301169050602081019050919050565b600081519050919050565b600081519050919050565b600082825260208201905092915050565b600082825260208201905092915050565b600081905092915050565b60006127a1826128bb565b91506127ac836128bb565b9250827fffffffffffffffffffffffffffffffffffffffffffffffffffffffffffffffff038211156127e1576127e06129b3565b5b828201905092915050565b60006127f7826128bb565b9150612802836128bb565b925082612812576128116129e2565b5b828204905092915050565b6000612828826128bb565b9150612833836128bb565b925082821015612846576128456129b3565b5b828203905092915050565b600061285c8261289b565b9050919050565b60008115159050919050565b60007fffffffff0000000000000000000000000000000000000000000000000000000082169050919050565b600073ffffffffffffffffffffffffffffffffffffffff82169050919050565b6000819050919050565b82818337600083830152505050565b60005b838110156128f25780820151818401526020810190506128d7565b83811115612901576000848401525b50505050565b6000600282049050600182168061291f57607f821691505b6020821081141561293357612932612a11565b5b50919050565b6000612944826128bb565b91507fffffffffffffffffffffffffffffffffffffffffffffffffffffffffffffffff821415612977576129766129b3565b5b600182019050919050565b600061298d826128bb565b9150612998836128bb565b9250826129a8576129a76129e2565b5b828206905092915050565b7f4e487b7100000000000000000000000000000000000000000000000000000000600052601160045260246000fd5b7f4e487b7100000000000000000000000000000000000000000000000000000000600052601260045260246000fd5b7f4e487b7100000000000000000000000000000000000000000000000000000000600052602260045260246000fd5b7f4e487b7100000000000000000000000000000000000000000000000000000000600052604160045260246000fd5b6000601f19601f8301169050919050565b612a8981612851565b8114612a9457600080fd5b50565b612aa081612863565b8114612aab57600080fd5b50565b612ab78161286f565b8114612ac257600080fd5b50565b612ace816128bb565b8114612ad957600080fd5b5056fe68747470733a2f2f6170692e6578616d706c652e636f6d2f6d657461646174612fa26469706673582212209cb13e12f1c06f89ec026270724bc5eee81723214e6ffb27ade52387d704c06064736f6c63430008000033",
  "linkReferences": {},
  "deployedLinkReferences": {}
}